{
  "contractName": "flashLoan",
  "abi": [
    {
      "inputs": [
        {
          "internalType": "address",
          "name": "_factory",
          "type": "address"
        },
        {
          "internalType": "address",
          "name": "_sushirouter",
          "type": "address"
        }
      ],
      "stateMutability": "nonpayable",
      "type": "constructor"
    },
    {
      "inputs": [
        {
          "internalType": "address",
          "name": "_tokenBorrow",
          "type": "address"
        },
        {
          "internalType": "uint256",
          "name": "amount",
          "type": "uint256"
        }
      ],
      "name": "flashSwap",
      "outputs": [],
      "stateMutability": "nonpayable",
      "type": "function"
    },
    {
      "inputs": [
        {
          "internalType": "address",
          "name": "_sender",
          "type": "address"
        },
        {
          "internalType": "uint256",
          "name": "_amount0",
          "type": "uint256"
        },
        {
          "internalType": "uint256",
          "name": "_amount1",
          "type": "uint256"
        },
        {
          "internalType": "bytes",
          "name": "data",
          "type": "bytes"
        }
      ],
      "name": "UniswapV2Call",
      "outputs": [],
      "stateMutability": "nonpayable",
      "type": "function"
    }
  ],
  "bytecode": "0x60c060405234801561001057600080fd5b506040516116433803806116438339818101604052604081101561003357600080fd5b8101908080519060200190929190805190602001909291905050508173ffffffffffffffffffffffffffffffffffffffff1660808173ffffffffffffffffffffffffffffffffffffffff1660601b815250508073ffffffffffffffffffffffffffffffffffffffff1660a08173ffffffffffffffffffffffffffffffffffffffff1660601b81525050505060805160601c60a05160601c61154d6100f66000398061052f528061063b5250806102a352806105fb528061083a525061154d6000f3fe608060405234801561001057600080fd5b50600436106100365760003560e01c806302f0228d1461003b578063abeb767c146100e8575b600080fd5b6100e66004803603608081101561005157600080fd5b81019080803573ffffffffffffffffffffffffffffffffffffffff1690602001909291908035906020019092919080359060200190929190803590602001906401000000008111156100a257600080fd5b8201836020820111156100b457600080fd5b803590602001918460018302840111640100000000831117156100d657600080fd5b9091929391929390505050610136565b005b610134600480360360408110156100fe57600080fd5b81019080803573ffffffffffffffffffffffffffffffffffffffff16906020019092919080359060200190929190505050610836565b005b6060600267ffffffffffffffff8111801561015057600080fd5b5060405190808252806020026020018201604052801561017f5781602001602082028036833780820191505090505b50905060008086146101915785610193565b845b905060003373ffffffffffffffffffffffffffffffffffffffff16630dfe16816040518163ffffffff1660e01b815260040160206040518083038186803b1580156101dd57600080fd5b505afa1580156101f1573d6000803e3d6000fd5b505050506040513d602081101561020757600080fd5b8101908080519060200190929190505050905060003373ffffffffffffffffffffffffffffffffffffffff1663d21220a76040518163ffffffff1660e01b815260040160206040518083038186803b15801561026257600080fd5b505afa158015610276573d6000803e3d6000fd5b505050506040513d602081101561028c57600080fd5b8101908080519060200190929190505050905060007f000000000000000000000000000000000000000000000000000000000000000073ffffffffffffffffffffffffffffffffffffffff1663e6a4390584846040518363ffffffff1660e01b8152600401808373ffffffffffffffffffffffffffffffffffffffff1673ffffffffffffffffffffffffffffffffffffffff1681526020018273ffffffffffffffffffffffffffffffffffffffff1673ffffffffffffffffffffffffffffffffffffffff1681526020019250505060206040518083038186803b15801561037257600080fd5b505afa158015610386573d6000803e3d6000fd5b505050506040513d602081101561039c57600080fd5b810190808051906020019092919050505090508073ffffffffffffffffffffffffffffffffffffffff163373ffffffffffffffffffffffffffffffffffffffff1614610450576040517f08c379a00000000000000000000000000000000000000000000000000000000081526004018080602001828103825260088152602001807f4e6f74205061697200000000000000000000000000000000000000000000000081525060200191505060405180910390fd5b6000891461045e5782610460565b815b8560008151811061046d57fe5b602002602001019073ffffffffffffffffffffffffffffffffffffffff16908173ffffffffffffffffffffffffffffffffffffffff1681525050600089146104b557816104b7565b825b856001815181106104c457fe5b602002602001019073ffffffffffffffffffffffffffffffffffffffff16908173ffffffffffffffffffffffffffffffffffffffff16815250506000808a1461050d578361050f565b825b90508073ffffffffffffffffffffffffffffffffffffffff1663095ea7b37f0000000000000000000000000000000000000000000000000000000000000000876040518363ffffffff1660e01b8152600401808373ffffffffffffffffffffffffffffffffffffffff1673ffffffffffffffffffffffffffffffffffffffff16815260200182815260200192505050602060405180830381600087803b1580156105b857600080fd5b505af11580156105cc573d6000803e3d6000fd5b505050506040513d60208110156105e257600080fd5b81019080805190602001909291905050505060006106217f00000000000000000000000000000000000000000000000000000000000000008789610c4b565b60008151811061062d57fe5b6020026020010151905060007f000000000000000000000000000000000000000000000000000000000000000073ffffffffffffffffffffffffffffffffffffffff166338ed173988848b33620d2f006040518663ffffffff1660e01b815260040180868152602001858152602001806020018473ffffffffffffffffffffffffffffffffffffffff1673ffffffffffffffffffffffffffffffffffffffff168152602001838152602001828103825285818151815260200191508051906020019060200280838360005b838110156107135780820151818401526020810190506106f8565b505050509050019650505050505050600060405180830381600087803b15801561073c57600080fd5b505af1158015610750573d6000803e3d6000fd5b505050506040513d6000823e3d601f19601f82011682018060405250602081101561077a57600080fd5b810190808051604051939291908464010000000082111561079a57600080fd5b838201915060208201858111156107b057600080fd5b82518660208202830111640100000000821117156107cd57600080fd5b8083526020830192505050908051906020019060200280838360005b838110156108045780820151818401526020810190506107e9565b5050505090500160405250505060018151811061081d57fe5b6020026020010151905050505050505050505050505050565b60007f000000000000000000000000000000000000000000000000000000000000000073ffffffffffffffffffffffffffffffffffffffff1663e6a439058473c02aaa39b223fe8d0a0e5c4f27ead9083c756cc26040518363ffffffff1660e01b8152600401808373ffffffffffffffffffffffffffffffffffffffff1673ffffffffffffffffffffffffffffffffffffffff1681526020018273ffffffffffffffffffffffffffffffffffffffff1673ffffffffffffffffffffffffffffffffffffffff1681526020019250505060206040518083038186803b15801561091d57600080fd5b505afa158015610931573d6000803e3d6000fd5b505050506040513d602081101561094757600080fd5b81019080805190602001909291905050509050600073ffffffffffffffffffffffffffffffffffffffff168173ffffffffffffffffffffffffffffffffffffffff1614156109fd576040517f08c379a00000000000000000000000000000000000000000000000000000000081526004018080602001828103825260088152602001807f6e6f74207061697200000000000000000000000000000000000000000000000081525060200191505060405180910390fd5b60008173ffffffffffffffffffffffffffffffffffffffff16630dfe16816040518163ffffffff1660e01b815260040160206040518083038186803b158015610a4557600080fd5b505afa158015610a59573d6000803e3d6000fd5b505050506040513d6020811015610a6f57600080fd5b8101908080519060200190929190505050905060008273ffffffffffffffffffffffffffffffffffffffff1663d21220a76040518163ffffffff1660e01b815260040160206040518083038186803b158015610aca57600080fd5b505afa158015610ade573d6000803e3d6000fd5b505050506040513d6020811015610af457600080fd5b8101908080519060200190929190505050905060008273ffffffffffffffffffffffffffffffffffffffff168673ffffffffffffffffffffffffffffffffffffffff1614610b43576000610b45565b845b905060008273ffffffffffffffffffffffffffffffffffffffff168773ffffffffffffffffffffffffffffffffffffffff1614610b83576000610b85565b855b90508473ffffffffffffffffffffffffffffffffffffffff1663022c0d9f8383306040518463ffffffff1660e01b8152600401808481526020018381526020018273ffffffffffffffffffffffffffffffffffffffff1673ffffffffffffffffffffffffffffffffffffffff16815260200180602001828103825260008152602001602001945050505050600060405180830381600087803b158015610c2a57600080fd5b505af1158015610c3e573d6000803e3d6000fd5b5050505050505050505050565b6060600282511015610cc5576040517f08c379a000000000000000000000000000000000000000000000000000000000815260040180806020018281038252601e8152602001807f556e697377617056324c6962726172793a20494e56414c49445f50415448000081525060200191505060405180910390fd5b815167ffffffffffffffff81118015610cdd57600080fd5b50604051908082528060200260200182016040528015610d0c5781602001602082028036833780820191505090505b5090508281600183510381518110610d2057fe5b6020026020010181815250506000600183510390505b6000811115610dc357600080610d7687866001860381518110610d5557fe5b6020026020010151878681518110610d6957fe5b6020026020010151610dcb565b91509150610d98848481518110610d8957fe5b60200260200101518383610ef4565b846001850381518110610da757fe5b6020026020010181815250505050808060019003915050610d36565b509392505050565b6000806000610dda8585611031565b509050600080610deb8888886111a8565b73ffffffffffffffffffffffffffffffffffffffff16630902f1ac6040518163ffffffff1660e01b815260040160606040518083038186803b158015610e3057600080fd5b505afa158015610e44573d6000803e3d6000fd5b505050506040513d6060811015610e5a57600080fd5b81019080805190602001909291908051906020019092919080519060200190929190505050506dffffffffffffffffffffffffffff1691506dffffffffffffffffffffffffffff1691508273ffffffffffffffffffffffffffffffffffffffff168773ffffffffffffffffffffffffffffffffffffffff1614610ede578082610ee1565b81815b8095508196505050505050935093915050565b6000808411610f4e576040517f08c379a000000000000000000000000000000000000000000000000000000000815260040180806020018281038252602c81526020018061149f602c913960400191505060405180910390fd5b600083118015610f5e5750600082115b610fb3576040517f08c379a00000000000000000000000000000000000000000000000000000000081526004018080602001828103825260288152602001806114f06028913960400191505060405180910390fd5b6000610fdc6103e8610fce878761130390919063ffffffff16565b61130390919063ffffffff16565b905060006110076103e5610ff9888761139890919063ffffffff16565b61130390919063ffffffff16565b9050611026600182848161101757fe5b0461141b90919063ffffffff16565b925050509392505050565b6000808273ffffffffffffffffffffffffffffffffffffffff168473ffffffffffffffffffffffffffffffffffffffff1614156110b9576040517f08c379a00000000000000000000000000000000000000000000000000000000081526004018080602001828103825260258152602001806114cb6025913960400191505060405180910390fd5b8273ffffffffffffffffffffffffffffffffffffffff168473ffffffffffffffffffffffffffffffffffffffff16106110f35782846110f6565b83835b8092508193505050600073ffffffffffffffffffffffffffffffffffffffff168273ffffffffffffffffffffffffffffffffffffffff1614156111a1576040517f08c379a000000000000000000000000000000000000000000000000000000000815260040180806020018281038252601e8152602001807f556e697377617056324c6962726172793a205a45524f5f41444452455353000081525060200191505060405180910390fd5b9250929050565b60008060006111b78585611031565b91509150858282604051602001808373ffffffffffffffffffffffffffffffffffffffff1673ffffffffffffffffffffffffffffffffffffffff1660601b81526014018273ffffffffffffffffffffffffffffffffffffffff1673ffffffffffffffffffffffffffffffffffffffff1660601b8152601401925050506040516020818303038152906040528051906020012060405160200180807fff000000000000000000000000000000000000000000000000000000000000008152506001018373ffffffffffffffffffffffffffffffffffffffff1673ffffffffffffffffffffffffffffffffffffffff1660601b8152601401828152602001807f96e8ac4277198ff8b6f785478aa9a39f403cb768dd02cbee326c3e7da348845f815250602001925050506040516020818303038152906040528051906020012060001c925050509392505050565b600080821480611320575082828385029250828161131d57fe5b04145b611392576040517f08c379a00000000000000000000000000000000000000000000000000000000081526004018080602001828103825260148152602001807f64732d6d6174682d6d756c2d6f766572666c6f7700000000000000000000000081525060200191505060405180910390fd5b92915050565b6000828284039150811115611415576040517f08c379a00000000000000000000000000000000000000000000000000000000081526004018080602001828103825260158152602001807f64732d6d6174682d7375622d756e646572666c6f77000000000000000000000081525060200191505060405180910390fd5b92915050565b6000828284019150811015611498576040517f08c379a00000000000000000000000000000000000000000000000000000000081526004018080602001828103825260148152602001807f64732d6d6174682d6164642d6f766572666c6f7700000000000000000000000081525060200191505060405180910390fd5b9291505056fe556e697377617056324c6962726172793a20494e53554646494349454e545f4f55545055545f414d4f554e54556e697377617056324c6962726172793a204944454e544943414c5f414444524553534553556e697377617056324c6962726172793a20494e53554646494349454e545f4c4951554944495459a2646970667358221220f469cdb2753ba710b59f3c7cea1913539284bab2e7fc879602b54ba8dad3d9be64736f6c63430006060033",
  "immutableReferences": {
    "2634": [
      {
        "length": 32,
        "start": 675
      },
      {
        "length": 32,
        "start": 1531
      },
      {
        "length": 32,
        "start": 2106
      }
    ],
    "2639": [
      {
        "length": 32,
        "start": 1327
      },
      {
        "length": 32,
        "start": 1595
      }
    ]
  },
  "source": "/// SPDX-License-Identifier: UNLICENSED;\r\npragma solidity =0.6.6;\r\n\r\nimport './UniswapV2Library.sol';\r\nimport './interfaces/IUniswapV2Router02.sol';\r\nimport './interfaces/IUniswapV2Pair.sol';\r\nimport './interfaces/IERC20.sol';\r\nimport './interfaces/IUniswapV2Factory.sol';\r\n\r\n\r\n\r\n\r\n\r\ncontract flashLoan {\r\n    address immutable factory;\r\n    uint constant deadline = 10 days;\r\n    IUniswapV2Router02 immutable sushirouter;\r\n\r\n    address private constant WETH = 0xC02aaA39b223FE8D0A0e5C4F27eAD9083C756Cc2;\r\n\r\n    constructor(address _factory, address _sushirouter) public {\r\n        factory = _factory;\r\n        sushirouter = IUniswapV2Router02(_sushirouter);\r\n    }\r\n\r\n    function flashSwap(address _tokenBorrow, uint amount) external {\r\n        address pair = IUniswapV2Factory(factory).getPair(_tokenBorrow, WETH);\r\n        require(pair != address(0), 'not pair');\r\n\r\n        address token0 = IUniswapV2Pair(pair).token0();\r\n        address token1 = IUniswapV2Pair(pair).token1();\r\n\r\n        uint amount0 = _tokenBorrow == token0 ? amount : 0;\r\n        uint amount1 = _tokenBorrow == token1 ? amount : 0; \r\n\r\n        IUniswapV2Pair(pair).swap(amount0, amount1, address(this), \"\");\r\n    }\r\n\r\n    function UniswapV2Call(address _sender, uint _amount0, uint _amount1, bytes calldata data) external {\r\n\r\n        address[] memory path = new address[] (2);\r\n        uint amountToken = _amount0 == 0 ? _amount1 : _amount0;\r\n\r\n        address token0 = IUniswapV2Pair(msg.sender).token0();\r\n        address token1 = IUniswapV2Pair(msg.sender).token1();\r\n\r\n        address pair = IUniswapV2Factory(factory).getPair(token0,token1);\r\n        require(msg.sender == pair, \"Not Pair\");\r\n\r\n        path[0] = _amount0 == 0 ? token1 : token0;\r\n        path[1] = _amount0 == 0 ? token0 : token1;\r\n\r\n        IERC20 token = IERC20(_amount0 == 0 ? token1 : token0);\r\n\r\n        token.approve(address(sushirouter), amountToken);\r\n\r\n        uint amountRequired = UniswapV2Library.getAmountsIn(factory, amountToken, path)[0];\r\n        uint amountRecieved = sushirouter.swapExactTokensForTokens(amountToken, amountRequired, path, msg.sender, deadline)[1];\r\n\r\n        \r\n\r\n    }\r\n}\r\n",
  "sourcePath": "C:\\Users\\lateefat .D. Ibrahim\\Desktop\\Blank\\Github\\mev-Bot\\contracts\\mevBot.sol",
  "compiler": {
    "name": "solc",
    "version": "0.6.6+commit.6c089d02.Emscripten.clang"
  },
  "schemaVersion": "3.4.4",
  "updatedAt": "2022-06-15T16:33:15.003Z",
  "devdoc": {
    "methods": {}
  },
  "userdoc": {
    "methods": {}
  }
}