{
  "contractName": "flashLoan",
  "abi": [
    {
      "inputs": [
        {
          "internalType": "address",
          "name": "_sushirouter",
          "type": "address"
        },
        {
          "internalType": "address",
          "name": "_factory",
          "type": "address"
        }
      ],
      "stateMutability": "nonpayable",
      "type": "constructor"
    },
    {
      "inputs": [
        {
          "internalType": "address",
          "name": "_tokenBorrow",
          "type": "address"
        },
        {
          "internalType": "address",
          "name": "_token2",
          "type": "address"
        },
        {
          "internalType": "uint256",
          "name": "amount",
          "type": "uint256"
        }
      ],
      "name": "flashSwap",
      "outputs": [],
      "stateMutability": "nonpayable",
      "type": "function"
    },
    {
      "inputs": [
        {
          "internalType": "address",
          "name": "_sender",
          "type": "address"
        },
        {
          "internalType": "uint256",
          "name": "_amount0",
          "type": "uint256"
        },
        {
          "internalType": "uint256",
          "name": "_amount1",
          "type": "uint256"
        },
        {
          "internalType": "bytes",
          "name": "data",
          "type": "bytes"
        }
      ],
      "name": "UniswapV2Call",
      "outputs": [],
      "stateMutability": "nonpayable",
      "type": "function"
    }
  ],
  "bytecode": "0x60c060405234801561001057600080fd5b506040516116503803806116508339818101604052604081101561003357600080fd5b8101908080519060200190929190805190602001909291905050508073ffffffffffffffffffffffffffffffffffffffff1660808173ffffffffffffffffffffffffffffffffffffffff1660601b815250508173ffffffffffffffffffffffffffffffffffffffff1660a08173ffffffffffffffffffffffffffffffffffffffff1660601b81525050505060805160601c60a05160601c61155a6100f66000398061054f528061065b5250806102c3528061061b528061085a525061155a6000f3fe608060405234801561001057600080fd5b50600436106100365760003560e01c806302f0228d1461003b57806330ed1d3a146100e8575b600080fd5b6100e66004803603608081101561005157600080fd5b81019080803573ffffffffffffffffffffffffffffffffffffffff1690602001909291908035906020019092919080359060200190929190803590602001906401000000008111156100a257600080fd5b8201836020820111156100b457600080fd5b803590602001918460018302840111640100000000831117156100d657600080fd5b9091929391929390505050610156565b005b610154600480360360608110156100fe57600080fd5b81019080803573ffffffffffffffffffffffffffffffffffffffff169060200190929190803573ffffffffffffffffffffffffffffffffffffffff16906020019092919080359060200190929190505050610856565b005b6060600267ffffffffffffffff8111801561017057600080fd5b5060405190808252806020026020018201604052801561019f5781602001602082028036833780820191505090505b50905060008086146101b157856101b3565b845b905060003373ffffffffffffffffffffffffffffffffffffffff16630dfe16816040518163ffffffff1660e01b815260040160206040518083038186803b1580156101fd57600080fd5b505afa158015610211573d6000803e3d6000fd5b505050506040513d602081101561022757600080fd5b8101908080519060200190929190505050905060003373ffffffffffffffffffffffffffffffffffffffff1663d21220a76040518163ffffffff1660e01b815260040160206040518083038186803b15801561028257600080fd5b505afa158015610296573d6000803e3d6000fd5b505050506040513d60208110156102ac57600080fd5b8101908080519060200190929190505050905060007f000000000000000000000000000000000000000000000000000000000000000073ffffffffffffffffffffffffffffffffffffffff1663e6a4390584846040518363ffffffff1660e01b8152600401808373ffffffffffffffffffffffffffffffffffffffff1673ffffffffffffffffffffffffffffffffffffffff1681526020018273ffffffffffffffffffffffffffffffffffffffff1673ffffffffffffffffffffffffffffffffffffffff1681526020019250505060206040518083038186803b15801561039257600080fd5b505afa1580156103a6573d6000803e3d6000fd5b505050506040513d60208110156103bc57600080fd5b810190808051906020019092919050505090508073ffffffffffffffffffffffffffffffffffffffff163373ffffffffffffffffffffffffffffffffffffffff1614610470576040517f08c379a00000000000000000000000000000000000000000000000000000000081526004018080602001828103825260088152602001807f4e6f74205061697200000000000000000000000000000000000000000000000081525060200191505060405180910390fd5b6000891461047e5782610480565b815b8560008151811061048d57fe5b602002602001019073ffffffffffffffffffffffffffffffffffffffff16908173ffffffffffffffffffffffffffffffffffffffff1681525050600089146104d557816104d7565b825b856001815181106104e457fe5b602002602001019073ffffffffffffffffffffffffffffffffffffffff16908173ffffffffffffffffffffffffffffffffffffffff16815250506000808a1461052d578361052f565b825b90508073ffffffffffffffffffffffffffffffffffffffff1663095ea7b37f0000000000000000000000000000000000000000000000000000000000000000876040518363ffffffff1660e01b8152600401808373ffffffffffffffffffffffffffffffffffffffff1673ffffffffffffffffffffffffffffffffffffffff16815260200182815260200192505050602060405180830381600087803b1580156105d857600080fd5b505af11580156105ec573d6000803e3d6000fd5b505050506040513d602081101561060257600080fd5b81019080805190602001909291905050505060006106417f00000000000000000000000000000000000000000000000000000000000000008789610c58565b60008151811061064d57fe5b6020026020010151905060007f000000000000000000000000000000000000000000000000000000000000000073ffffffffffffffffffffffffffffffffffffffff166338ed173988848b33620d2f006040518663ffffffff1660e01b815260040180868152602001858152602001806020018473ffffffffffffffffffffffffffffffffffffffff1673ffffffffffffffffffffffffffffffffffffffff168152602001838152602001828103825285818151815260200191508051906020019060200280838360005b83811015610733578082015181840152602081019050610718565b505050509050019650505050505050600060405180830381600087803b15801561075c57600080fd5b505af1158015610770573d6000803e3d6000fd5b505050506040513d6000823e3d601f19601f82011682018060405250602081101561079a57600080fd5b81019080805160405193929190846401000000008211156107ba57600080fd5b838201915060208201858111156107d057600080fd5b82518660208202830111640100000000821117156107ed57600080fd5b8083526020830192505050908051906020019060200280838360005b83811015610824578082015181840152602081019050610809565b5050505090500160405250505060018151811061083d57fe5b6020026020010151905050505050505050505050505050565b60007f000000000000000000000000000000000000000000000000000000000000000073ffffffffffffffffffffffffffffffffffffffff1663e6a4390585856040518363ffffffff1660e01b8152600401808373ffffffffffffffffffffffffffffffffffffffff1673ffffffffffffffffffffffffffffffffffffffff1681526020018273ffffffffffffffffffffffffffffffffffffffff1673ffffffffffffffffffffffffffffffffffffffff1681526020019250505060206040518083038186803b15801561092957600080fd5b505afa15801561093d573d6000803e3d6000fd5b505050506040513d602081101561095357600080fd5b81019080805190602001909291905050509050600073ffffffffffffffffffffffffffffffffffffffff168173ffffffffffffffffffffffffffffffffffffffff161415610a09576040517f08c379a00000000000000000000000000000000000000000000000000000000081526004018080602001828103825260088152602001807f6e6f74207061697200000000000000000000000000000000000000000000000081525060200191505060405180910390fd5b60008173ffffffffffffffffffffffffffffffffffffffff16630dfe16816040518163ffffffff1660e01b815260040160206040518083038186803b158015610a5157600080fd5b505afa158015610a65573d6000803e3d6000fd5b505050506040513d6020811015610a7b57600080fd5b8101908080519060200190929190505050905060008273ffffffffffffffffffffffffffffffffffffffff1663d21220a76040518163ffffffff1660e01b815260040160206040518083038186803b158015610ad657600080fd5b505afa158015610aea573d6000803e3d6000fd5b505050506040513d6020811015610b0057600080fd5b8101908080519060200190929190505050905060008273ffffffffffffffffffffffffffffffffffffffff168773ffffffffffffffffffffffffffffffffffffffff1614610b4f576000610b51565b845b905060008273ffffffffffffffffffffffffffffffffffffffff168873ffffffffffffffffffffffffffffffffffffffff1614610b8f576000610b91565b855b90508473ffffffffffffffffffffffffffffffffffffffff1663022c0d9f8383306040518463ffffffff1660e01b8152600401808481526020018381526020018273ffffffffffffffffffffffffffffffffffffffff1673ffffffffffffffffffffffffffffffffffffffff16815260200180602001828103825260008152602001602001945050505050600060405180830381600087803b158015610c3657600080fd5b505af1158015610c4a573d6000803e3d6000fd5b505050505050505050505050565b6060600282511015610cd2576040517f08c379a000000000000000000000000000000000000000000000000000000000815260040180806020018281038252601e8152602001807f556e697377617056324c6962726172793a20494e56414c49445f50415448000081525060200191505060405180910390fd5b815167ffffffffffffffff81118015610cea57600080fd5b50604051908082528060200260200182016040528015610d195781602001602082028036833780820191505090505b5090508281600183510381518110610d2d57fe5b6020026020010181815250506000600183510390505b6000811115610dd057600080610d8387866001860381518110610d6257fe5b6020026020010151878681518110610d7657fe5b6020026020010151610dd8565b91509150610da5848481518110610d9657fe5b60200260200101518383610f01565b846001850381518110610db457fe5b6020026020010181815250505050808060019003915050610d43565b509392505050565b6000806000610de7858561103e565b509050600080610df88888886111b5565b73ffffffffffffffffffffffffffffffffffffffff16630902f1ac6040518163ffffffff1660e01b815260040160606040518083038186803b158015610e3d57600080fd5b505afa158015610e51573d6000803e3d6000fd5b505050506040513d6060811015610e6757600080fd5b81019080805190602001909291908051906020019092919080519060200190929190505050506dffffffffffffffffffffffffffff1691506dffffffffffffffffffffffffffff1691508273ffffffffffffffffffffffffffffffffffffffff168773ffffffffffffffffffffffffffffffffffffffff1614610eeb578082610eee565b81815b8095508196505050505050935093915050565b6000808411610f5b576040517f08c379a000000000000000000000000000000000000000000000000000000000815260040180806020018281038252602c8152602001806114ac602c913960400191505060405180910390fd5b600083118015610f6b5750600082115b610fc0576040517f08c379a00000000000000000000000000000000000000000000000000000000081526004018080602001828103825260288152602001806114fd6028913960400191505060405180910390fd5b6000610fe96103e8610fdb878761131090919063ffffffff16565b61131090919063ffffffff16565b905060006110146103e561100688876113a590919063ffffffff16565b61131090919063ffffffff16565b9050611033600182848161102457fe5b0461142890919063ffffffff16565b925050509392505050565b6000808273ffffffffffffffffffffffffffffffffffffffff168473ffffffffffffffffffffffffffffffffffffffff1614156110c6576040517f08c379a00000000000000000000000000000000000000000000000000000000081526004018080602001828103825260258152602001806114d86025913960400191505060405180910390fd5b8273ffffffffffffffffffffffffffffffffffffffff168473ffffffffffffffffffffffffffffffffffffffff1610611100578284611103565b83835b8092508193505050600073ffffffffffffffffffffffffffffffffffffffff168273ffffffffffffffffffffffffffffffffffffffff1614156111ae576040517f08c379a000000000000000000000000000000000000000000000000000000000815260040180806020018281038252601e8152602001807f556e697377617056324c6962726172793a205a45524f5f41444452455353000081525060200191505060405180910390fd5b9250929050565b60008060006111c4858561103e565b91509150858282604051602001808373ffffffffffffffffffffffffffffffffffffffff1673ffffffffffffffffffffffffffffffffffffffff1660601b81526014018273ffffffffffffffffffffffffffffffffffffffff1673ffffffffffffffffffffffffffffffffffffffff1660601b8152601401925050506040516020818303038152906040528051906020012060405160200180807fff000000000000000000000000000000000000000000000000000000000000008152506001018373ffffffffffffffffffffffffffffffffffffffff1673ffffffffffffffffffffffffffffffffffffffff1660601b8152601401828152602001807f96e8ac4277198ff8b6f785478aa9a39f403cb768dd02cbee326c3e7da348845f815250602001925050506040516020818303038152906040528051906020012060001c925050509392505050565b60008082148061132d575082828385029250828161132a57fe5b04145b61139f576040517f08c379a00000000000000000000000000000000000000000000000000000000081526004018080602001828103825260148152602001807f64732d6d6174682d6d756c2d6f766572666c6f7700000000000000000000000081525060200191505060405180910390fd5b92915050565b6000828284039150811115611422576040517f08c379a00000000000000000000000000000000000000000000000000000000081526004018080602001828103825260158152602001807f64732d6d6174682d7375622d756e646572666c6f77000000000000000000000081525060200191505060405180910390fd5b92915050565b60008282840191508110156114a5576040517f08c379a00000000000000000000000000000000000000000000000000000000081526004018080602001828103825260148152602001807f64732d6d6174682d6164642d6f766572666c6f7700000000000000000000000081525060200191505060405180910390fd5b9291505056fe556e697377617056324c6962726172793a20494e53554646494349454e545f4f55545055545f414d4f554e54556e697377617056324c6962726172793a204944454e544943414c5f414444524553534553556e697377617056324c6962726172793a20494e53554646494349454e545f4c4951554944495459a264697066735822122075a5a93149774774f3224468db8b1c96d3c6a94009b22aef579fb274b7afb9ec64736f6c63430006060033",
  "immutableReferences": {
    "2634": [
      {
        "length": 32,
        "start": 707
      },
      {
        "length": 32,
        "start": 1563
      },
      {
        "length": 32,
        "start": 2138
      }
    ],
    "2639": [
      {
        "length": 32,
        "start": 1359
      },
      {
        "length": 32,
        "start": 1627
      }
    ]
  },
  "source": "/// SPDX-License-Identifier: UNLICENSED;\r\npragma solidity = 0.6.6;\r\n\r\nimport './UniswapV2Library.sol';\r\nimport './interfaces/IUniswapV2Router02.sol';\r\nimport './interfaces/IUniswapV2Pair.sol';\r\nimport './interfaces/IERC20.sol';\r\nimport './interfaces/IUniswapV2Factory.sol';\r\n\r\n\r\n\r\n\r\n\r\ncontract flashLoan {\r\n    address immutable factory;\r\n    uint constant deadline = 10 days;\r\n    IUniswapV2Router02 immutable sushirouter;\r\n\r\n    constructor(address _sushirouter, address _factory) public {\r\n        factory = _factory;\r\n        sushirouter = IUniswapV2Router02(_sushirouter);\r\n    }\r\n\r\n   \r\n\r\n    function flashSwap(address _tokenBorrow, address _token2, uint amount) external {\r\n        address pair = IUniswapV2Factory(factory).getPair(_tokenBorrow, _token2);\r\n        require(pair != address(0), 'not pair');\r\n\r\n        address token0 = IUniswapV2Pair(pair).token0();\r\n        address token1 = IUniswapV2Pair(pair).token1();\r\n\r\n        uint amount0 = _tokenBorrow == token0 ? amount : 0;\r\n        uint amount1 = _tokenBorrow == token1 ? amount : 0; \r\n\r\n        IUniswapV2Pair(pair).swap(amount0, amount1, address(this), \"\");\r\n    }\r\n\r\n    function UniswapV2Call(address _sender, uint _amount0, uint _amount1, bytes calldata data) external {\r\n\r\n        address[] memory path = new address[] (2);\r\n        uint amountToken = _amount0 == 0 ? _amount1 : _amount0;\r\n\r\n        address token0 = IUniswapV2Pair(msg.sender).token0();\r\n        address token1 = IUniswapV2Pair(msg.sender).token1();\r\n\r\n        address pair = IUniswapV2Factory(factory).getPair(token0,token1);\r\n        require(msg.sender == pair, \"Not Pair\");\r\n\r\n        path[0] = _amount0 == 0 ? token1 : token0;\r\n        path[1] = _amount0 == 0 ? token0 : token1;\r\n\r\n        IERC20 token = IERC20(_amount0 == 0 ? token1 : token0);\r\n\r\n        token.approve(address(sushirouter), amountToken);\r\n\r\n        uint amountRequired = UniswapV2Library.getAmountsIn(factory, amountToken, path)[0];\r\n        uint amountRecieved = sushirouter.swapExactTokensForTokens(amountToken, amountRequired, path, msg.sender, deadline)[1];\r\n\r\n        \r\n\r\n    }\r\n}\r\n",
  "sourcePath": "C:\\Users\\lateefat .D. Ibrahim\\Desktop\\Blank\\Github\\mev-Bot\\contracts\\mevBot.sol",
  "compiler": {
    "name": "solc",
    "version": "0.6.6+commit.6c089d02.Emscripten.clang"
  },
  "schemaVersion": "3.4.4",
  "updatedAt": "2022-06-24T14:50:38.876Z",
  "networkType": "ethereum",
  "devdoc": {
    "methods": {}
  },
  "userdoc": {
    "methods": {}
  }
}